{
  "contractName": "SmartContractTemplate",
  "abi": [
    {
      "inputs": [],
      "stateMutability": "nonpayable",
      "type": "constructor"
    },
    {
      "inputs": [],
      "name": "getContractName",
      "outputs": [
        {
          "internalType": "string",
          "name": "",
          "type": "string"
        }
      ],
      "stateMutability": "view",
      "type": "function"
    },
    {
      "inputs": [
        {
          "internalType": "string",
          "name": "_name",
          "type": "string"
        }
      ],
      "name": "setContractName",
      "outputs": [],
      "stateMutability": "nonpayable",
      "type": "function"
    },
    {
      "inputs": [],
      "name": "getInitialBalance",
      "outputs": [
        {
          "internalType": "uint256",
          "name": "",
          "type": "uint256"
        }
      ],
      "stateMutability": "view",
      "type": "function"
    },
    {
      "inputs": [
        {
          "internalType": "address",
          "name": "_address",
          "type": "address"
        }
      ],
      "name": "getAddressBalance",
      "outputs": [
        {
          "internalType": "uint256",
          "name": "",
          "type": "uint256"
        }
      ],
      "stateMutability": "view",
      "type": "function"
    }
  ],
  "bytecode": "0x608060405234801561001057600080fd5b506040518060400160405280601781526020017f536d61727420436f6e74726163742054656d706c6174650000000000000000008152506000908051906020019061005c92919061013a565b5033600160006101000a81548173ffffffffffffffffffffffffffffffffffffffff021916908373ffffffffffffffffffffffffffffffffffffffff160217905550600073ffffffffffffffffffffffffffffffffffffffff16600160009054906101000a900473ffffffffffffffffffffffffffffffffffffffff1673ffffffffffffffffffffffffffffffffffffffff161461013557600160009054906101000a900473ffffffffffffffffffffffffffffffffffffffff1673ffffffffffffffffffffffffffffffffffffffff16316002819055505b61023e565b8280546101469061020c565b90600052602060002090601f01602090048101928261016857600085556101af565b82601f1061018157805160ff19168380011785556101af565b828001600101855582156101af579182015b828111156101ae578251825591602001919060010190610193565b5b5090506101bc91906101c0565b5090565b5b808211156101d95760008160009055506001016101c1565b5090565b7f4e487b7100000000000000000000000000000000000000000000000000000000600052602260045260246000fd5b6000600282049050600182168061022457607f821691505b60208210811415610238576102376101dd565b5b50919050565b6105f68061024d6000396000f3fe608060405234801561001057600080fd5b506004361061004c5760003560e01c80630b5ee006146100515780630db146e61461006d578063350467221461008b578063f5f5ba72146100bb575b600080fd5b61006b600480360381019061006691906103ad565b6100d9565b005b6100756100f3565b604051610082919061040f565b60405180910390f35b6100a560048036038101906100a09190610488565b6100fd565b6040516100b2919061040f565b60405180910390f35b6100c361011e565b6040516100d0919061053d565b60405180910390f35b80600090805190602001906100ef9291906101b0565b5050565b6000600254905090565b60008173ffffffffffffffffffffffffffffffffffffffff16319050919050565b60606000805461012d9061058e565b80601f01602080910402602001604051908101604052809291908181526020018280546101599061058e565b80156101a65780601f1061017b576101008083540402835291602001916101a6565b820191906000526020600020905b81548152906001019060200180831161018957829003601f168201915b5050505050905090565b8280546101bc9061058e565b90600052602060002090601f0160209004810192826101de5760008555610225565b82601f106101f757805160ff1916838001178555610225565b82800160010185558215610225579182015b82811115610224578251825591602001919060010190610209565b5b5090506102329190610236565b5090565b5b8082111561024f576000816000905550600101610237565b5090565b6000604051905090565b600080fd5b600080fd5b600080fd5b600080fd5b6000601f19601f8301169050919050565b7f4e487b7100000000000000000000000000000000000000000000000000000000600052604160045260246000fd5b6102ba82610271565b810181811067ffffffffffffffff821117156102d9576102d8610282565b5b80604052505050565b60006102ec610253565b90506102f882826102b1565b919050565b600067ffffffffffffffff82111561031857610317610282565b5b61032182610271565b9050602081019050919050565b82818337600083830152505050565b600061035061034b846102fd565b6102e2565b90508281526020810184848401111561036c5761036b61026c565b5b61037784828561032e565b509392505050565b600082601f83011261039457610393610267565b5b81356103a484826020860161033d565b91505092915050565b6000602082840312156103c3576103c261025d565b5b600082013567ffffffffffffffff8111156103e1576103e0610262565b5b6103ed8482850161037f565b91505092915050565b6000819050919050565b610409816103f6565b82525050565b60006020820190506104246000830184610400565b92915050565b600073ffffffffffffffffffffffffffffffffffffffff82169050919050565b60006104558261042a565b9050919050565b6104658161044a565b811461047057600080fd5b50565b6000813590506104828161045c565b92915050565b60006020828403121561049e5761049d61025d565b5b60006104ac84828501610473565b91505092915050565b600081519050919050565b600082825260208201905092915050565b60005b838110156104ef5780820151818401526020810190506104d4565b838111156104fe576000848401525b50505050565b600061050f826104b5565b61051981856104c0565b93506105298185602086016104d1565b61053281610271565b840191505092915050565b600060208201905081810360008301526105578184610504565b905092915050565b7f4e487b7100000000000000000000000000000000000000000000000000000000600052602260045260246000fd5b600060028204905060018216806105a657607f821691505b602082108114156105ba576105b961055f565b5b5091905056fea264697066735822122075609f626ad37003e307db09a27991ad870a8e47dfe0c1e20c4f74505ae63ee664736f6c634300080b0033",
  "immutableReferences": {},
  "source": "// SPDX-License-Identifier: MIT\r\n// Copyright © 2022 gparap\r\npragma solidity >=0.4.17; \r\n\r\ncontract SmartContractTemplate {\r\n    string private name;\r\n    address private owner;\r\n    uint private balance;\r\n\r\n    constructor() {\r\n        name = \"Smart Contract Template\";\r\n        owner = msg.sender;\r\n\r\n        //set initial balance\r\n        if (owner != address(0x0)){\r\n            balance = owner.balance;\r\n        }     \r\n    }\r\n\r\n    function getContractName() public view returns(string memory) {\r\n        return name;\r\n    }\r\n\r\n    function setContractName(string memory _name) public {\r\n        name = _name;\r\n    }\r\n\r\n    function getInitialBalance() public view returns (uint) {\r\n        return balance;\r\n    }\r\n\r\n    function getAddressBalance(address _address) public view returns (uint) {\r\n        return _address.balance;\r\n    }\r\n}",
  "sourcePath": "C:\\Users\\GP\\BlockchainProjects\\blockchain\\dapps\\EthereumDappTemplateTruffle\\contracts\\Template.sol",
  "compiler": {
    "name": "solc",
    "version": "0.8.11+commit.d7f03943.Emscripten.clang"
  },
  "schemaVersion": "3.4.4",
  "updatedAt": "2022-02-22T15:49:31.189Z",
  "devdoc": {
    "kind": "dev",
    "methods": {},
    "version": 1
  },
  "userdoc": {
    "kind": "user",
    "methods": {},
    "version": 1
  }
}