{
  "contractName": "ToDoContract",
  "abi": [
    {
      "inputs": [],
      "stateMutability": "nonpayable",
      "type": "constructor"
    },
    {
      "anonymous": false,
      "inputs": [
        {
          "indexed": false,
          "internalType": "uint256",
          "name": "_id",
          "type": "uint256"
        }
      ],
      "name": "CompletedToDoEvent",
      "type": "event"
    },
    {
      "anonymous": false,
      "inputs": [
        {
          "indexed": false,
          "internalType": "uint256",
          "name": "_id",
          "type": "uint256"
        }
      ],
      "name": "DeletedToDoEvent",
      "type": "event"
    },
    {
      "anonymous": false,
      "inputs": [
        {
          "indexed": false,
          "internalType": "uint256",
          "name": "",
          "type": "uint256"
        },
        {
          "indexed": false,
          "internalType": "string",
          "name": "",
          "type": "string"
        },
        {
          "indexed": false,
          "internalType": "string",
          "name": "",
          "type": "string"
        },
        {
          "indexed": false,
          "internalType": "uint256",
          "name": "",
          "type": "uint256"
        },
        {
          "indexed": false,
          "internalType": "bool",
          "name": "",
          "type": "bool"
        }
      ],
      "name": "NewToDoEvent",
      "type": "event"
    },
    {
      "inputs": [],
      "name": "dummy",
      "outputs": [
        {
          "internalType": "uint256",
          "name": "_id",
          "type": "uint256"
        },
        {
          "internalType": "string",
          "name": "_name",
          "type": "string"
        },
        {
          "internalType": "string",
          "name": "_details",
          "type": "string"
        },
        {
          "internalType": "uint256",
          "name": "_timestamp",
          "type": "uint256"
        },
        {
          "internalType": "bool",
          "name": "_isCompleted",
          "type": "bool"
        }
      ],
      "stateMutability": "view",
      "type": "function",
      "constant": true
    },
    {
      "inputs": [
        {
          "internalType": "string",
          "name": "_name",
          "type": "string"
        },
        {
          "internalType": "string",
          "name": "_details",
          "type": "string"
        }
      ],
      "name": "createToDo",
      "outputs": [],
      "stateMutability": "nonpayable",
      "type": "function"
    },
    {
      "inputs": [
        {
          "internalType": "uint256",
          "name": "_id",
          "type": "uint256"
        }
      ],
      "name": "deleteToDo",
      "outputs": [],
      "stateMutability": "nonpayable",
      "type": "function"
    },
    {
      "inputs": [
        {
          "internalType": "uint256",
          "name": "_id",
          "type": "uint256"
        }
      ],
      "name": "getToDo",
      "outputs": [
        {
          "components": [
            {
              "internalType": "uint256",
              "name": "id",
              "type": "uint256"
            },
            {
              "internalType": "string",
              "name": "name",
              "type": "string"
            },
            {
              "internalType": "string",
              "name": "details",
              "type": "string"
            },
            {
              "internalType": "uint256",
              "name": "date",
              "type": "uint256"
            },
            {
              "internalType": "bool",
              "name": "isCompleted",
              "type": "bool"
            }
          ],
          "internalType": "struct ToDoContract.ToDo",
          "name": "",
          "type": "tuple"
        }
      ],
      "stateMutability": "view",
      "type": "function",
      "constant": true
    },
    {
      "inputs": [],
      "name": "getToDosCount",
      "outputs": [
        {
          "internalType": "uint256",
          "name": "",
          "type": "uint256"
        }
      ],
      "stateMutability": "view",
      "type": "function",
      "constant": true
    },
    {
      "inputs": [
        {
          "internalType": "uint256",
          "name": "_id",
          "type": "uint256"
        },
        {
          "internalType": "bool",
          "name": "_isCompleted",
          "type": "bool"
        }
      ],
      "name": "setCompleted",
      "outputs": [],
      "stateMutability": "nonpayable",
      "type": "function"
    }
  ],
  "bytecode": "0x608060405261270f6001555f600255348015610019575f80fd5b50610d61806100275f395ff3fe608060405234801561000f575f80fd5b5060043610610060575f3560e01c80630e50b5131461006457806332e43a1114610080578063549fd151146100a25780635711ed47146100be5780635cb9f4a4146100dc578063d1323ed0146100f8575b5f80fd5b61007e60048036038101906100799190610678565b610128565b005b6100886101ff565b60405161009995949392919061079a565b60405180910390f35b6100bc60048036038101906100b79190610823565b61028a565b005b6100c66102f7565b6040516100d3919061084e565b60405180910390f35b6100f660048036038101906100f19190610891565b610300565b005b610112600480360381019061010d9190610823565b61032e565b60405161011f91906109af565b60405180910390f35b5f6040518060a0016040528060015481526020018481526020018381526020014281526020015f15158152509050805f8060015481526020019081526020015f205f820151815f015560208201518160010190816101869190610bc9565b50604082015181600201908161019c9190610bc9565b50606082015181600301556080820151816004015f6101000a81548160ff0219169083151502179055509050506001805f8282546101da9190610cc5565b92505081905550600160025f8282546101f39190610cf8565b92505081905550505050565b5f6060805f806001425f6040518060400160405280600581526020017f64756d6d7900000000000000000000000000000000000000000000000000000081525091906040518060400160405280600781526020017f64657461696c73000000000000000000000000000000000000000000000000008152509190945094509450945094509091929394565b5f808281526020019081526020015f205f8082015f9055600182015f6102b091906104a5565b600282015f6102bf91906104a5565b600382015f9055600482015f6101000a81549060ff02191690555050600160025f8282546102ed9190610cc5565b9250508190555050565b5f600254905090565b805f808481526020019081526020015f206004015f6101000a81548160ff0219169083151502179055505050565b6103366104e2565b5f808381526020019081526020015f206040518060a00160405290815f820154815260200160018201805461036a906109fc565b80601f0160208091040260200160405190810160405280929190818152602001828054610396906109fc565b80156103e15780601f106103b8576101008083540402835291602001916103e1565b820191905f5260205f20905b8154815290600101906020018083116103c457829003601f168201915b505050505081526020016002820180546103fa906109fc565b80601f0160208091040260200160405190810160405280929190818152602001828054610426906109fc565b80156104715780601f1061044857610100808354040283529160200191610471565b820191905f5260205f20905b81548152906001019060200180831161045457829003601f168201915b5050505050815260200160038201548152602001600482015f9054906101000a900460ff1615151515815250509050919050565b5080546104b1906109fc565b5f825580601f106104c257506104df565b601f0160209004905f5260205f20908101906104de9190610510565b5b50565b6040518060a001604052805f815260200160608152602001606081526020015f81526020015f151581525090565b5b80821115610527575f815f905550600101610511565b5090565b5f604051905090565b5f80fd5b5f80fd5b5f80fd5b5f80fd5b5f601f19601f8301169050919050565b7f4e487b71000000000000000000000000000000000000000000000000000000005f52604160045260245ffd5b61058a82610544565b810181811067ffffffffffffffff821117156105a9576105a8610554565b5b80604052505050565b5f6105bb61052b565b90506105c78282610581565b919050565b5f67ffffffffffffffff8211156105e6576105e5610554565b5b6105ef82610544565b9050602081019050919050565b828183375f83830152505050565b5f61061c610617846105cc565b6105b2565b90508281526020810184848401111561063857610637610540565b5b6106438482856105fc565b509392505050565b5f82601f83011261065f5761065e61053c565b5b813561066f84826020860161060a565b91505092915050565b5f806040838503121561068e5761068d610534565b5b5f83013567ffffffffffffffff8111156106ab576106aa610538565b5b6106b78582860161064b565b925050602083013567ffffffffffffffff8111156106d8576106d7610538565b5b6106e48582860161064b565b9150509250929050565b5f819050919050565b610700816106ee565b82525050565b5f81519050919050565b5f82825260208201905092915050565b5f5b8381101561073d578082015181840152602081019050610722565b5f8484015250505050565b5f61075282610706565b61075c8185610710565b935061076c818560208601610720565b61077581610544565b840191505092915050565b5f8115159050919050565b61079481610780565b82525050565b5f60a0820190506107ad5f8301886106f7565b81810360208301526107bf8187610748565b905081810360408301526107d38186610748565b90506107e260608301856106f7565b6107ef608083018461078b565b9695505050505050565b610802816106ee565b811461080c575f80fd5b50565b5f8135905061081d816107f9565b92915050565b5f6020828403121561083857610837610534565b5b5f6108458482850161080f565b91505092915050565b5f6020820190506108615f8301846106f7565b92915050565b61087081610780565b811461087a575f80fd5b50565b5f8135905061088b81610867565b92915050565b5f80604083850312156108a7576108a6610534565b5b5f6108b48582860161080f565b92505060206108c58582860161087d565b9150509250929050565b6108d8816106ee565b82525050565b5f82825260208201905092915050565b5f6108f882610706565b61090281856108de565b9350610912818560208601610720565b61091b81610544565b840191505092915050565b61092f81610780565b82525050565b5f60a083015f83015161094a5f8601826108cf565b506020830151848203602086015261096282826108ee565b9150506040830151848203604086015261097c82826108ee565b915050606083015161099160608601826108cf565b5060808301516109a46080860182610926565b508091505092915050565b5f6020820190508181035f8301526109c78184610935565b905092915050565b7f4e487b71000000000000000000000000000000000000000000000000000000005f52602260045260245ffd5b5f6002820490506001821680610a1357607f821691505b602082108103610a2657610a256109cf565b5b50919050565b5f819050815f5260205f209050919050565b5f6020601f8301049050919050565b5f82821b905092915050565b5f60088302610a887fffffffffffffffffffffffffffffffffffffffffffffffffffffffffffffffff82610a4d565b610a928683610a4d565b95508019841693508086168417925050509392505050565b5f819050919050565b5f610acd610ac8610ac3846106ee565b610aaa565b6106ee565b9050919050565b5f819050919050565b610ae683610ab3565b610afa610af282610ad4565b848454610a59565b825550505050565b5f90565b610b0e610b02565b610b19818484610add565b505050565b5b81811015610b3c57610b315f82610b06565b600181019050610b1f565b5050565b601f821115610b8157610b5281610a2c565b610b5b84610a3e565b81016020851015610b6a578190505b610b7e610b7685610a3e565b830182610b1e565b50505b505050565b5f82821c905092915050565b5f610ba15f1984600802610b86565b1980831691505092915050565b5f610bb98383610b92565b9150826002028217905092915050565b610bd282610706565b67ffffffffffffffff811115610beb57610bea610554565b5b610bf582546109fc565b610c00828285610b40565b5f60209050601f831160018114610c31575f8415610c1f578287015190505b610c298582610bae565b865550610c90565b601f198416610c3f86610a2c565b5f5b82811015610c6657848901518255600182019150602085019450602081019050610c41565b86831015610c835784890151610c7f601f891682610b92565b8355505b6001600288020188555050505b505050505050565b7f4e487b71000000000000000000000000000000000000000000000000000000005f52601160045260245ffd5b5f610ccf826106ee565b9150610cda836106ee565b9250828203905081811115610cf257610cf1610c98565b5b92915050565b5f610d02826106ee565b9150610d0d836106ee565b9250828201905080821115610d2557610d24610c98565b5b9291505056fea2646970667358221220ccff65a8f4216bc529b451c04944b4b98683484f99adaf64552bfd14df78e18b64736f6c63430008150033",
  "immutableReferences": {},
  "source": "// SPDX-License-Identifier: MIT\n//  2023 gparap\npragma solidity >=0.4.22 <0.9.0;\n\n/**\n * @title ToDoContract\n * @dev A To-Do List Contract\n */\ncontract ToDoContract {\n    struct ToDo {\n        uint id;\n        string name;\n        string details;\n        uint date;\n        bool isCompleted;\n    }\n    mapping (uint => ToDo) private todos;\n\n    //to keep track of the id\n    uint idTracker = 9999;\n\n    //to keep track of the todos count\n    uint todosTracker = 0;\n\n    //Events\n    event NewToDoEvent(uint,string,string,uint,bool);   //new to-do created\n    event DeletedToDoEvent(uint _id);                   //to-do deleted\n    event CompletedToDoEvent(uint _id);                 //to-do completed\n\n    constructor() {\n    }\n\n    function dummy() public view returns(\n        uint _id,\n        string memory _name, \n        string memory _details,\n        uint _timestamp,\n        bool _isCompleted\n    ){\n        return(\n            1, \"dummy\", \"details\", block.timestamp, false\n        );\n    }\n\n    //create a new todo\n    function createToDo(string memory _name, string memory _details) public {\n        //create the new todo\n        ToDo memory todo = ToDo(idTracker, _name, _details, block.timestamp, false);\n\n        //add todo to list\n        todos[idTracker] = todo;\n\n        //update trackers\n        idTracker -= 1;\n        todosTracker += 1;\n    }\n\n    //delete an existing todo\n    function deleteToDo(uint _id) public {\n        //delete todo\n        delete todos[_id];\n\n        //update todo tracker\n        todosTracker -= 1;\n    }\n\n    //get a specific todo\n    function getToDo(uint _id) public view returns(ToDo memory) {\n        return todos[_id];\n    }\n\n    //get the number of todos\n    function getToDosCount() public view returns(uint) {\n        return todosTracker;\n    }\n\n    //mark todo as completed or not\n    function setCompleted(uint _id, bool _isCompleted) public {\n        todos[_id].isCompleted = _isCompleted;\n    }\n}\n",
  "sourcePath": "/home/gp/Documents/GitHub/blockchain/dapps/ToDoListDapp/contracts/ToDoContract.sol",
  "compiler": {
    "name": "solc",
    "version": "0.8.21+commit.d9974bed.Emscripten.clang"
  },
  "schemaVersion": "3.4.16",
  "updatedAt": "2023-11-23T07:20:39.674Z",
  "networkType": "ethereum",
  "devdoc": {
    "details": "A To-Do List Contract",
    "kind": "dev",
    "methods": {},
    "title": "ToDoContract",
    "version": 1
  },
  "userdoc": {
    "kind": "user",
    "methods": {},
    "version": 1
  }
}