{
  "contractName": "ToDoContract",
  "abi": [
    {
      "inputs": [],
      "stateMutability": "nonpayable",
      "type": "constructor"
    },
    {
      "anonymous": false,
      "inputs": [
        {
          "indexed": false,
          "internalType": "uint256",
          "name": "_id",
          "type": "uint256"
        }
      ],
      "name": "CompletedToDoEvent",
      "type": "event"
    },
    {
      "anonymous": false,
      "inputs": [
        {
          "indexed": false,
          "internalType": "uint256",
          "name": "_id",
          "type": "uint256"
        }
      ],
      "name": "DeletedToDoEvent",
      "type": "event"
    },
    {
      "anonymous": false,
      "inputs": [
        {
          "indexed": false,
          "internalType": "uint256",
          "name": "",
          "type": "uint256"
        },
        {
          "indexed": false,
          "internalType": "string",
          "name": "",
          "type": "string"
        },
        {
          "indexed": false,
          "internalType": "string",
          "name": "",
          "type": "string"
        },
        {
          "indexed": false,
          "internalType": "uint256",
          "name": "",
          "type": "uint256"
        },
        {
          "indexed": false,
          "internalType": "bool",
          "name": "",
          "type": "bool"
        }
      ],
      "name": "NewToDoEvent",
      "type": "event"
    },
    {
      "inputs": [],
      "name": "getCurrentId",
      "outputs": [
        {
          "internalType": "uint256",
          "name": "",
          "type": "uint256"
        }
      ],
      "stateMutability": "view",
      "type": "function",
      "constant": true
    },
    {
      "inputs": [
        {
          "internalType": "string",
          "name": "_name",
          "type": "string"
        },
        {
          "internalType": "string",
          "name": "_details",
          "type": "string"
        }
      ],
      "name": "createToDo",
      "outputs": [],
      "stateMutability": "nonpayable",
      "type": "function"
    },
    {
      "inputs": [
        {
          "internalType": "uint256",
          "name": "_id",
          "type": "uint256"
        }
      ],
      "name": "deleteToDo",
      "outputs": [],
      "stateMutability": "nonpayable",
      "type": "function"
    },
    {
      "inputs": [
        {
          "internalType": "uint256",
          "name": "_id",
          "type": "uint256"
        }
      ],
      "name": "getToDo",
      "outputs": [
        {
          "components": [
            {
              "internalType": "uint256",
              "name": "id",
              "type": "uint256"
            },
            {
              "internalType": "string",
              "name": "name",
              "type": "string"
            },
            {
              "internalType": "string",
              "name": "details",
              "type": "string"
            },
            {
              "internalType": "uint256",
              "name": "date",
              "type": "uint256"
            },
            {
              "internalType": "bool",
              "name": "isCompleted",
              "type": "bool"
            }
          ],
          "internalType": "struct ToDoContract.ToDo",
          "name": "",
          "type": "tuple"
        }
      ],
      "stateMutability": "view",
      "type": "function",
      "constant": true
    },
    {
      "inputs": [],
      "name": "getToDosCount",
      "outputs": [
        {
          "internalType": "uint256",
          "name": "",
          "type": "uint256"
        }
      ],
      "stateMutability": "view",
      "type": "function",
      "constant": true
    },
    {
      "inputs": [
        {
          "internalType": "uint256",
          "name": "_id",
          "type": "uint256"
        },
        {
          "internalType": "bool",
          "name": "_isCompleted",
          "type": "bool"
        }
      ],
      "name": "setCompleted",
      "outputs": [],
      "stateMutability": "nonpayable",
      "type": "function"
    }
  ],
  "bytecode": "0x608060405261270f6001555f600255348015610019575f80fd5b50610c25806100275f395ff3fe608060405234801561000f575f80fd5b5060043610610060575f3560e01c80630e50b51314610064578063549fd151146100805780635711ed471461009c5780635cb9f4a4146100ba5780636c143862146100d6578063d1323ed0146100f4575b5f80fd5b61007e600480360381019061007991906105f2565b610124565b005b61009a6004803603810190610095919061069b565b6101fb565b005b6100a4610268565b6040516100b191906106d5565b60405180910390f35b6100d460048036038101906100cf9190610723565b610271565b005b6100de61029f565b6040516100eb91906106d5565b60405180910390f35b61010e6004803603810190610109919061069b565b6102a8565b60405161011b9190610873565b60405180910390f35b5f6040518060a0016040528060015481526020018481526020018381526020014281526020015f15158152509050805f8060015481526020019081526020015f205f820151815f015560208201518160010190816101829190610a8d565b5060408201518160020190816101989190610a8d565b50606082015181600301556080820151816004015f6101000a81548160ff0219169083151502179055509050506001805f8282546101d69190610b89565b92505081905550600160025f8282546101ef9190610bbc565b92505081905550505050565b5f808281526020019081526020015f205f8082015f9055600182015f610221919061041f565b600282015f610230919061041f565b600382015f9055600482015f6101000a81549060ff02191690555050600160025f82825461025e9190610b89565b9250508190555050565b5f600254905090565b805f808481526020019081526020015f206004015f6101000a81548160ff0219169083151502179055505050565b5f600154905090565b6102b061045c565b5f808381526020019081526020015f206040518060a00160405290815f82015481526020016001820180546102e4906108c0565b80601f0160208091040260200160405190810160405280929190818152602001828054610310906108c0565b801561035b5780601f106103325761010080835404028352916020019161035b565b820191905f5260205f20905b81548152906001019060200180831161033e57829003601f168201915b50505050508152602001600282018054610374906108c0565b80601f01602080910402602001604051908101604052809291908181526020018280546103a0906108c0565b80156103eb5780601f106103c2576101008083540402835291602001916103eb565b820191905f5260205f20905b8154815290600101906020018083116103ce57829003601f168201915b5050505050815260200160038201548152602001600482015f9054906101000a900460ff1615151515815250509050919050565b50805461042b906108c0565b5f825580601f1061043c5750610459565b601f0160209004905f5260205f2090810190610458919061048a565b5b50565b6040518060a001604052805f815260200160608152602001606081526020015f81526020015f151581525090565b5b808211156104a1575f815f90555060010161048b565b5090565b5f604051905090565b5f80fd5b5f80fd5b5f80fd5b5f80fd5b5f601f19601f8301169050919050565b7f4e487b71000000000000000000000000000000000000000000000000000000005f52604160045260245ffd5b610504826104be565b810181811067ffffffffffffffff82111715610523576105226104ce565b5b80604052505050565b5f6105356104a5565b905061054182826104fb565b919050565b5f67ffffffffffffffff8211156105605761055f6104ce565b5b610569826104be565b9050602081019050919050565b828183375f83830152505050565b5f61059661059184610546565b61052c565b9050828152602081018484840111156105b2576105b16104ba565b5b6105bd848285610576565b509392505050565b5f82601f8301126105d9576105d86104b6565b5b81356105e9848260208601610584565b91505092915050565b5f8060408385031215610608576106076104ae565b5b5f83013567ffffffffffffffff811115610625576106246104b2565b5b610631858286016105c5565b925050602083013567ffffffffffffffff811115610652576106516104b2565b5b61065e858286016105c5565b9150509250929050565b5f819050919050565b61067a81610668565b8114610684575f80fd5b50565b5f8135905061069581610671565b92915050565b5f602082840312156106b0576106af6104ae565b5b5f6106bd84828501610687565b91505092915050565b6106cf81610668565b82525050565b5f6020820190506106e85f8301846106c6565b92915050565b5f8115159050919050565b610702816106ee565b811461070c575f80fd5b50565b5f8135905061071d816106f9565b92915050565b5f8060408385031215610739576107386104ae565b5b5f61074685828601610687565b92505060206107578582860161070f565b9150509250929050565b61076a81610668565b82525050565b5f81519050919050565b5f82825260208201905092915050565b5f5b838110156107a757808201518184015260208101905061078c565b5f8484015250505050565b5f6107bc82610770565b6107c6818561077a565b93506107d681856020860161078a565b6107df816104be565b840191505092915050565b6107f3816106ee565b82525050565b5f60a083015f83015161080e5f860182610761565b506020830151848203602086015261082682826107b2565b9150506040830151848203604086015261084082826107b2565b91505060608301516108556060860182610761565b50608083015161086860808601826107ea565b508091505092915050565b5f6020820190508181035f83015261088b81846107f9565b905092915050565b7f4e487b71000000000000000000000000000000000000000000000000000000005f52602260045260245ffd5b5f60028204905060018216806108d757607f821691505b6020821081036108ea576108e9610893565b5b50919050565b5f819050815f5260205f209050919050565b5f6020601f8301049050919050565b5f82821b905092915050565b5f6008830261094c7fffffffffffffffffffffffffffffffffffffffffffffffffffffffffffffffff82610911565b6109568683610911565b95508019841693508086168417925050509392505050565b5f819050919050565b5f61099161098c61098784610668565b61096e565b610668565b9050919050565b5f819050919050565b6109aa83610977565b6109be6109b682610998565b84845461091d565b825550505050565b5f90565b6109d26109c6565b6109dd8184846109a1565b505050565b5b81811015610a00576109f55f826109ca565b6001810190506109e3565b5050565b601f821115610a4557610a16816108f0565b610a1f84610902565b81016020851015610a2e578190505b610a42610a3a85610902565b8301826109e2565b50505b505050565b5f82821c905092915050565b5f610a655f1984600802610a4a565b1980831691505092915050565b5f610a7d8383610a56565b9150826002028217905092915050565b610a9682610770565b67ffffffffffffffff811115610aaf57610aae6104ce565b5b610ab982546108c0565b610ac4828285610a04565b5f60209050601f831160018114610af5575f8415610ae3578287015190505b610aed8582610a72565b865550610b54565b601f198416610b03866108f0565b5f5b82811015610b2a57848901518255600182019150602085019450602081019050610b05565b86831015610b475784890151610b43601f891682610a56565b8355505b6001600288020188555050505b505050505050565b7f4e487b71000000000000000000000000000000000000000000000000000000005f52601160045260245ffd5b5f610b9382610668565b9150610b9e83610668565b9250828203905081811115610bb657610bb5610b5c565b5b92915050565b5f610bc682610668565b9150610bd183610668565b9250828201905080821115610be957610be8610b5c565b5b9291505056fea264697066735822122099c0fc1ac6a02fe7288a1a7bee7e8b9634cd30a117f53a02cdd1b840ecc8461564736f6c63430008150033",
  "immutableReferences": {},
  "source": "// SPDX-License-Identifier: MIT\n//  2023 gparap\npragma solidity >=0.4.22 <0.9.0;\n\n/**\n * @title ToDoContract\n * @dev A To-Do List Contract\n */\ncontract ToDoContract {\n    struct ToDo {\n        uint id;\n        string name;\n        string details;\n        uint date;\n        bool isCompleted;\n    }\n    mapping (uint => ToDo) private todos;\n\n    //to keep track of the id\n    uint idTracker = 9999;\n    function getCurrentId() public view returns(uint) {\n        return idTracker;\n    }\n\n    //to keep track of the todos count\n    uint todosTracker = 0;\n\n    //Events\n    event NewToDoEvent(uint,string,string,uint,bool);   //new to-do created\n    event DeletedToDoEvent(uint _id);                   //to-do deleted\n    event CompletedToDoEvent(uint _id);                 //to-do completed\n\n    constructor() {\n    }\n\n    //create a new todo\n    function createToDo(string memory _name, string memory _details) public {\n        //create the new todo\n        ToDo memory todo = ToDo(idTracker, _name, _details, block.timestamp, false);\n\n        //add todo to list\n        todos[idTracker] = todo;\n\n        //update trackers\n        idTracker -= 1;\n        todosTracker += 1;\n    }\n\n    //delete an existing todo\n    function deleteToDo(uint _id) public {\n        //delete todo\n        delete todos[_id];\n\n        //update todo tracker\n        todosTracker -= 1;\n    }\n\n    //get a specific todo\n    function getToDo(uint _id) public view returns(ToDo memory) {\n        return todos[_id];\n    }\n\n    //get the number of todos\n    function getToDosCount() public view returns(uint) {\n        return todosTracker;\n    }\n\n    //mark todo as completed or not\n    function setCompleted(uint _id, bool _isCompleted) public {\n        todos[_id].isCompleted = _isCompleted;\n    }\n}\n",
  "sourcePath": "/home/gp/Documents/GitHub/blockchain/dapps/ToDoListDapp/contracts/ToDoContract.sol",
  "compiler": {
    "name": "solc",
    "version": "0.8.21+commit.d9974bed.Emscripten.clang"
  },
  "schemaVersion": "3.4.16",
  "updatedAt": "2023-11-30T15:24:17.161Z",
  "networkType": "ethereum",
  "devdoc": {
    "details": "A To-Do List Contract",
    "kind": "dev",
    "methods": {},
    "title": "ToDoContract",
    "version": 1
  },
  "userdoc": {
    "kind": "user",
    "methods": {},
    "version": 1
  }
}